:400000000010002011000000290500002905000010B500F091FAC04670B5194C23688022D20213432360182000F03AFB2268154B13402360144A154B1A601022144B1A6019
:400040001032144B1A601032134B1A6080221206124B1A6000252560114A124B1A60124A124B1A60124A134B1A601349092000F0BDFA092000F0A4FA104B1D6070BDC04689
:4000800000010B40FFFFFBFF0600008004010B40080202400C0202402002024008010B400E00008000000240CF000080400002402F75008080000240B10800000C020B4039
:4000C00010B572B60122304B1A7000240FE02F486200131959000B00411889881A5AC31858880004104300F019FA0134E4B2012CEDD9264801000C31383000F0F5F9244A5E
:40010000244B1A60C0229204234B1A60EE221202224B1A60EE22224B1A6099231B04214A13608A21C903204A1160204A1360802189051F4A11601F4A136001221E4B1A60A1
:4001400001321E4B1A601E4A117806230B43DBB2137024231B4A13601B491C4A116020211B4A116021311B4A11601B491B4A1160D82109011A4A116003211A4A11601A4AE9
:400180001360FFF749FF10BD1C700F406C1500000003990000000140040001400C0001401000014000500F4008500F4010500F4018500F4030500F402000004000800F40FB
:4001C00000700F400000044080110300080004401800044000010440020018000801044008030440000404400804044010B5064C2378002B07D1054B002B02D0044800E0FF
:4002000000BF0123237010BD40010020000000007C130000084B10B5002B03D00749084800E000BF07480368002B00D110BD064B002BFBD09847F9E7000000004401002048
:400240007C130000C00000200000000010B562B600F02AFC00F092FB144800F003FC00F057F800280FD1124800F0FCFB00F082FEFA24A400200000F0F1F900F009FE200089
:4002800000F0ECF9F2E700F033F80123094A0021002000F0DDF80123074A0A21002000F0D7F800F0E7F800F065FEFCE78013000094130000A4130000B013000070B5060095
:4002C0000D000A2200213C2000F020FD0A21002000F0AAFD002405E0305D0A2100F0A4FD0134E4B2AC42F7D30A2000F071FD70BD10B5054800F0B6FB80229200002103487C
:4003000001F034F810BDC046241500008C01002010B50C4800F0A6FBFFF7EAFF0A4800F0A1FB00F0C1FBFA20800000F097F900F09FFD1A210548FFF7C1FF054800F092FB26
:40034000012010BD3815000048150000B81300005C15000083B27F2B39D8002937DB1F2935DC012A04D0002A12D0022A20D02EE0CB17072213405B18DB10DB0118180723FE
:400380001940063B8B40124A115C0B4313541EE0CB17072213405B18DB10DB01181807231940063A8A400A490B5C93430B540EE0CB17072213405B18DB10DB011818072338
:4003C0001940063B8B40024A115C4B40135470478C010020F0B54F464646C0B483B00600894601931300203BDBB25F2B29D8203A93009A18154B2C339846904400251EE0FA
:4004000043465F5D002416E03B002341DB0708D54B46E11809B2A81900B2019AFFF79AFF07E04B46E11809B2A81900B20022FFF791FF0134E4B2062CE6D90135EDB2042D14
:40044000DED903B00CBC90469946F0BDB8130000F8B504000E0017001D0007E02B0031002000FFF7B7FF063424B201373A78002AF4D1F8BDF0B5474680B4062118486430FC
:40048000FFF71CFF174D80239B00984621E043464246102A00D910239FB20A2200213C2000F034FC0A21402000F0BEFC002407E06E1C28780A2100F0B7FC0134A4B2350041
:4004C000BC42F5D30A2000F083FC4346DF1BBBB298464346002BDAD104BC9046F0BDC046B81400008C010020F0B50025002711E0BB00C658F3B2FF22964308E06A008A1860
:400500001478A419527822700135013BDBB2002BF4D10137032FEBD9F0BDC04610B50A00002100F023FF10BD10B500F0F3FE03680C2B00D1FEE7FEE770B50F4E0F4D13E0C3
:4005400029686B68AC68002202E001C901C30432A242FAD1E868002202E0002102C304328242FAD11035013E002EE9D100F0D8FEFFF76CFEFEE7C0460100000008160000F1
:4005800010B500230AE0032B03D89A000949505800E009489900094A885001332F2BF2D9FFF78EFD8022D205116801230B43136010BDC04600000000290500000000002005
:4005C0001F2318401E3B8340014A13607047C04600E100E01F2318401E3B8340014A13607047C04680E100E001BE704770B504000D001F2802D90020FFF7F6FF1034A400D6
:4006000080239B059C4664442068256070BDC04670B504000E00032902D90020FFF7E4FF1F2C02D90020FFF7DFFF03252540ED00063500F0BBFCA408A400074B9C466444D4
:4006400021680323AB4099430B003100A9401943216000F0AFFC70BD00E400E010B5040006E0084B586800F097FC074B9C46644480231B029C42F4D8024B9868604300F00B
:400680008BFC10BDC40000200080FFFF10B5034B1B7B584300F080FC10BDC046C4000020F0B557464E46C0B483B0040000F07EFC0190E71E2D2F74D83F4B1B78DBB29C426C
:4006C00008D83E4B1B78DBB29A463D4B1B78DBB2994631E03B4B1B78DBB29C4208D83A4B1B78DBB29A46394B1B78DBB2994623E0374B1B78DBB29C4208D8364B1B78DBB289
:400700009A46354B1B78DBB2994615E0334B1B78DBB29C4208D8324B1B78DBB29A46314B1B78DBB2994607E02F4B1B78DBB29A462E4B1B78DBB299462D4BDE5D2F2E09D946
:400740002A2C07D919222B4B1A60052000F024FC192503E0274B1D683F231D40B54206D9234BDA5D234B1A60052000F015FC1F4B9C4664442378DBB21F4A13601F4B524689
:400780001A601F4B4A461A600520FFF77FFFB5420AD2174BDA5D174B1A60052000F0FCFB02E00020FFF720FF019800F003FC03B00CBC91469A46F0BDC0F1FF0FC1F1FF0F61
:4007C000C2F1FF0FC3F1FF0FC4F1FF0FC5F1FF0FC6F1FF0FC7F1FF0FC8F1FF0FC9F1FF0FCAF1FF0FCBF1FF0FCCF1FF0FCDF1FF0FB41500002CFF0B4028FF0B401CFF0B4094
:4008000020FF0B40034B1868C0231B02184000D00120704700010B4010B500F0C7FB044A1368C02109020B43136000F0C3FB10BD00010B4010B500F0B9FB08490A68084B01
:400840001A408024E40122430A600A6813408022120213430B6000F0ADFB10BD00010B40FF3FFFFF70B5050000F0A0FB0400FFF7C9FF002803D0FFF7DDFF012100E0002136
:4008800008482840084A1568084B2B40184310601368012901D1FFF7BFFF200000F08AFB70BDC0460404040010020B40FBFBFBFF10B5244B1B685B0715D5234B1B685B0786
:4008C0000ED5224BD969042001401F4C22688A432260DA698243DA611B69002B00D098470420FFF7BFFF174B1B685B0518D5164B1B685B0510D5154BD9698022D200114082
:40090000114802688A430260D969114A0A40DA615B69002B00D098478020C000FFF7A2FF084B1B685B030CD5074B1B685B0304D5064B9B69002B00D098478020C002FFF766
:4009400091FF10BD10020B40D80000205C010020FFFBFFFF10B500F06FF810BD10B500F01DF810BD10B5044A1368802109060B431360FFF7EFFF10BD0000074010B5064BC3
:400980001B78002B04D1FFF7E9FF0122024B1A70FFF7E8FF10BDC0467C010020134A144B1A600023134A13601349144A1160144A14490A6007201449086014490B60063814
:4009C0001349086013490A60134A1360134A1360134A1360134A1360134A1360134A1360134A13601268134B1A8070470B000002000007404000074001000A00480007401F
:400A000007000080000307400403074010030740440007400002074004020740880E0740C80E0740480F0740080F0740C80F0740880F07407E010020064A1168064B0B4026
:400A4000902109040B431360044B1A88044B1A607047C04600000140FFFF0FFF7E010020880F074070B50500002402E000F0A6FA0134285D0028F9D170BDC04610B50A2028
:400A8000FFF79EFD10BDC04610B500F01DF810BD10B5044A1368802109060B431360FFF7EDFF10BD0000064010B5064B1B78002B04D1FFF7E9FF0122024B1A70FFF7E8FFE9
:400AC00010BDC0468001002010B51B4A11680C230B4313600024194B1C60194A194B1A60194B1A4A13601A4A14601A4A14601A4A13601A4B1C600A20FFF76CFD03210A2030
:400B0000FFF786FD16490A20FFF770FD154B1C60154B1C60154B1C60154B1C60154B1C60154B1C601022154B1A70154B1C80154B1C60154B1C6010BD70000640000006408F
:400B40007708008060000640070100800003064004030640100306400002064004020640D90F0000C80E0640880E0640480F0640080F0640C80F0640880F06408C03002042
:400B80009C030020AC0300209403002010B5144A13685B005B081360002312490B6012490B601248046812492140016011490B6011490B601149124B19601249124B1960A4
:400BC0001249134B19601349134B19601021134B19701368802109060B43136010BDC04600000640680006406C00064060000640FF5CFFFF880F0640C80F0640F307000020
:400C0000800F0640ED0F0000C00F0640FF0F0000400F064017030000000F06408C03002010B504000368002B09D00120FFF72EFD2368013B2360002B03D0002003E0002028
:400C400001E08020000610BD10B5002839DBC023034208D00022284B1A601032274B1A70002310243DE0C3070FD5244B1B781B072BD5234B1B685B0001D5002300E0012343
:400C800010211E4A117001242BE0C30520D4830722D4C30605D51022184B1A70002300241FE0164B1B781B0719D5144B1B78DB0701D5252200E02422104B1A70002300245F
:400CC0000FE00123802424060BE00123012408E001238024640004E00023022401E000230024012B02D1FFF751FF02E0054A064B1A60200010BDC046680006408C030020E5
:400D00006000064017030000000F064070B582B004000D001600244B1B78102B40D10A20FFF758FC214B1B68DB0734D4FA239B005E43019600221E4B1A601E4A1E4B1A6045
:400D40001E4A1F4B1A606400FF231C40002D03D12422154B1A7004E02522134B1A7001231C43184B1C600222174B1A60124B1C680823FF3320001840144B1B68C0242340C0
:400D80001843040001A8FFF74BFF2043EED0FFF75BFF040000E008240A20FFF711FC00E00424200002B070BD8C03002064000640080F064017030000000F0640ED0F000015
:400DC000C00F06404002064068000640400F064010B582B0104B1B789B061AD5FA239B00584301900D4B1B689B0601D5182200E010220B4B1A600B4B18681223FF331840B7
:400E0000040001A8FFF70CFF2043F4D0FFF71CFF00E0042002B010BD8C0300206400064068000640000F064010B582B00D4B1B789B0613D5FA239B00594301910A4B1860CF
:400E40000A4B18680823FF331840040001A8FFF7E7FE2043F4D0FFF7F7FE00E0042002B010BDC0468C03002040020640000F064010B50A20FFF7AEFB044B1C88A4B2002240
:400E80001A800A20FFF79CFB200010BD9C03002010B500F08BF8044A136801218B43136000F088F810BDC046000005400004000C014B18607047C046080105400004000C5A
:400EC000014B18607047C046140105400004000C014B18607047C0460C01054070B504000D0000F063F8AC40024B1C6000F062F870BDC0460800054010B500F057F8064AE0
:400F0000116801230B43136000F054F818210120FFF7E4FF10BDC04600000540014B18607047C0463801054010B50E4C8023DB042360236823600020FFF7B8FF23682360C0
:400F40000C22094B1A600120FFF7E8FF3122074B1A60074C2000FFF7B1FF2000FFF7B6FF10BDC046000105402401054028010540FFFF000010B5064B1B78002B04D1FFF7E6
:400F8000D3FF0122024B1A70FFF7B6FF10BDC04688010020000000000230800804D0C0460138FDD1C046C046C0467047EFF3108072B6704780F310887047C046044B1B68EF
:400FC0000F221340082BF9D0024B18607047C046080207404002074010B5AD4B1B68002B00D09847AB4B1B68DB0702D50022AA4B1A60AA4B1B789B0628D5A94B1B68DB05BB
:4010000007D5A84A1188C0239B000B431380012300E00023A24A1268D20706D5A14A118890239B000B4313800123002B0FD09B4A1278D20701D5012200E002229949088811
:4010400002430A800021954A117000E00023934A1278920600D414E1914A1268D20611D51022914B1A608D4B1B78DB0701D5012300E002238B4A11880B4313801022874B1B
:401080001A7004E1854A1278120720D5844A126892070AD50222844B1A60824A118888239B000B431380012311E07C4A1278D20703D52521794A117009E02421774A117091
:4010C0007A4A1268002A02D01439794A1160734A1278520700D4ABE0704A1278D20749D5744A1268120727D5734A1268734909680F240C40724909686418141B082C09D8DF
:40110000002C16D16F4A11686F4B0B401360012308340EE008240CE0694A11686B48006841186B480068C0B20870116801311160013C002CF0D119E05E4A1268520715D543
:401140005F4A116861480068411861480068C0B208701168013111601168574A1268914203D204215B4A116000E001235A495B4A11605DE04A4A1268920726D502224A4B00
:401180001A6057490B680D321A40096880231B020B4000D001239B18524A1168CB1A13601268514B1A603F4A118884239B000B4313804E4B1A68802149020A431A60196855
:4011C0004B4A0A401A60012332E04A4A1268D20612D424E0434A1168344A1268914211D2404A11684448006841180978C9B243480160116801311160394A12680F210A4011
:40120000082AE7D1374A1168284A1268914202D14021274A11603A493A4A116008E0354A1268520604D52F4B1A682F4B1A600123002B2CD0234A1168234B0B4013600023FB
:40124000314A13601A4A1360304B1B789B070ED5124B1B78DB0701D5092300E00A23114A11880B43138060220C4B1A700FE0284B1B689B0601D5182200E01022154B1A607B
:4012800005E0064B1B78DB0601D4FFF77FFC10BD840100208C0E0640880E06408C0300200C0F06409C030020000F064098030020880F0640CC0F0640A80300200803064017
:4012C000AC03002060000640FFFEFFFFA00300204003064068000640ED0F0000C00F064008020640900300209403002004020640FFFFFEFF8C0F0640B00300204002064036
:40130000F3070000800F0640C80F0640A403002064000640014B18687047C0463C0100200E4B70B500251E000D4CE41AA410A54204D0AB00F35898470135F8E700F052F9BE
:40134000084B00251E00084CE41AA410A54204D0AB00F35898470135F8E770BDF0150000F0150000F0150000F815000003008218934202D019700133FAE77047000000004A
:401380000A0D5374617274696E6720436F64650A0D000000696E6974206661696C6564210A0D000048454C4C4F20574F524C44003132333435000000AED580A81FD30040AF
:4013C0008D142000A1C8DA02818FD9F1DB40A4A62EAF00000080C0E0F0F8FCFE000103070F1F3F7F3E5149453E00427F400042615149462141454B311814127F1027454552
:4014000045393C4A49493001710905033649494936064949291E7E1111117E7F494949363E414141227F4141221C7F494949417F090909013E4149497A7F0808087F004104
:401440007F41002040413F017F081422417F404040407F020C027F7F0408107F3E4141413E7F090909063E4151215E7F09192946464949493101017F01013F4040403F1FB6
:401480002040201F7F2018207F63140814630304780403615149454320545454787F484444383844444420384444487F3854545418087E0901020C5252523E7F080404784D
:4014C00000447D40002040443D007F1028440000417F40007C041804787C0804047838444444387C14141408081414187C7C080404084854545420043F4440203C4040207C
:401500007C1C2040201C3C4030403C44281028440C5050503C4464544C4400002200FF21007F0000436C656172696E6720446973706C61790A0D00005374617274696E6764
:4015400020696E69740A0D00436C656172656420446973706C61790A0D00000053656E7420436F6D6D616E64730A0D0000300F40000400400F400004E280E61053046F206C
:40158000D420DA80032062048B048E049708A720C010D8401908230189088F01C608C808E201E60802330F4004400F4008410F4008430F40030405060708090A0B0C0E0F5F
:4015C000101112131415161718191B1C1D1E1F2021222325262728292A2B2E2F3031323334354300F8B5C046F8BC08BC9E4670471502000081050000F8B5C046F8BC08BC92
:401600009E467047ED01000018160000C0000020800000007802000000000000010000000000E02EC05D00001800000000366E010404040000000000000000000000000024
:401640000000000000000000000000000000000000000000E21500000000000000000000000000000000000000000000000000000000000000000000000000000000000073
:401680000000000000000000000000000000000000000000DC000020000000000000000000000000000000000000000000000000000000000000000000000000000000002E
:4016C00000000000000000000000000000000000000000000000000000000000000000000000000000000000000000000000000000000000000000000000000000000000EA
:4017000000000000000000000000000000000000000000000000000000000000000000000000000000000000000000000000000000000000000000000000000000000000A9
:401740000000000000000000000000000000000000000000000000000000000000000000000000000000000000000000000000000000000000000000000000000000000069
:401780000000000000000000000000000000000000000000000000000000000000000000000000000000000000000000000000000000000000000000000000000000000029
:0200000490303A
:02000000CC0B27
:0200000490402A
:200000000000000000000000000000000000000000000000000000000000000000000000E0
:0200000490501A
:0C000000000204C81193110104CEDD9E23
:0200000490600A
:0100000001FE
:00000001FF