:400000000010002011000000F5130000F513000010B501F00FFAC04670B5194C23688022D20213432360182001F0B8FA2268154B13402360144A154B1A601022144B1A6068
:400040001032144B1A601032134B1A6080221206124B1A6000252560114A124B1A60124A124B1A60124A134B1A601349092001F03BFA092001F022FA104B1D6070BDC0468B
:4000800000010B40FFFFFBFF0600008004010B40080202400C0202402002024008010B400E00008000000240CF000080400002402F75008080000240AD1700000C020B402E
:4000C00010B572B60122304B1A7000240FE02F486200131959000B00411889881A5AC31858880004104301F07FF90134E4B2012CEDD9264801000C31383001F05BF9244A91
:40010000244B1A60C0229204234B1A60EE221202224B1A60EE22224B1A6099231B04214A13608A21C903204A1160204A1360802189051F4A11601F4A136001221E4B1A60A1
:4001400001321E4B1A601E4A117806230B43DBB2137024231B4A13601B491C4A116020211B4A116021311B4A11601B491B4A1160D82109011A4A116003211A4A11601A4AE9
:400180001360FFF749FF10BD1C700F40783500000003990000000140040001400C0001401000014000500F4008500F4010500F4018500F4030500F402000004000800F40CF
:4001C00000700F400000044080110300080004401800044000010440020018000801044008030440000404400804044010B5064C2378002B07D1054B002B02D0044800E0FF
:4002000000BF0123237010BD4801002000000000BC2F0000084B10B5002B03D00749084800E000BF07480368002B00D110BD064B002BFBD09847F9E7000000004C010020DC
:40024000BC2F0000C000002000000000F0B55F4656464D464446F0B4A1B062B601F0A2FB01F00AFBC94801F07BFB00F055FA00280FD1C74801F074FB01F0EAFEFA24A40056
:40028000200001F069F901F071FE200001F064F9F2E700F031FA0123BE4A0021002000F025FB00F035FB00F0BDFB00280DD1BA4801F056FB00F020FA0123B84A0021002009
:4002C00000F014FB00F024FBFEE7B54801F048FB80235B0101939C23FF330093833BFF3B022204211F2000F03FFCAE4801F038FB00F002FA0123AC4A0021002000F0F6FAD7
:400300000123AA4A0C21002000F0F0FA00F000FBFA20C00001F020F9012500230593002400F03EFDAAE000F007FD070000F00CFDA3009F4A9F509F4A98500134E4B2002DBD
:400340001CD00A21200002F0D7F8C9B2002915D100F0D2F90123984A0021002000F0C6FA2300964A402110A802F0EAF9012310AA0C21002000F0BAFA00F0CAFA632C7BD9F2
:400380008F4C231D029323000833019323000C3300932300864A6421864800F09FFEA3680C22A2560292226801920422A2560092844A402110A802F0C3F910A801F0D0FA39
:4003C0000423E356002B10D07D4B9B68282B0CDDB32B0ADC7A494A7B92008A1813610B7F022B15D801330B7712E0754B1B7F002B0ED0734B5B7B002B02D05A1ED2B200E07B
:4004000002226F4992008A1812699B00CB181A616B4B1B7B5BB2002B10D0694B1B68552B0CDD642B0ADC66494A7B92008A1813620B7F022B15D801330B7712E0604B1B7F11
:40044000002B0ED05E4B5B7B002B02D05A1ED2B200E002225A4992008A18126A9B00CB181A62574C607B0130032102F02FF96173002501230593002400F070FC00F04CFC50
:40048000002800D04FE7059B002B1CD1FFE01A0099004B4E711809690E00293E8A2E04D8401841460131C9B28846920044498A18126A110056390E2902D891440137FFB221
:4004C0000133DBB205E00023002700229046914600203B4A127F9342D9D34346002B04D0414602F00DF8824601E000239A46002F05D03900484602F003F8834601E000234F
:400500009B4600F009FD814600F0F6F801232E4A0021002000F0EAF94346002B0AD05346282B07DDB32B05DC284A142106A802F007F918E0224B1B795BB2002B0BD0204BB4
:400540009B68282B07DDB32B05DC214A142106A802F0F6F807E006AA1E4B19680691998891809B799371012306AA0C21002000F0BDF9002F32D05B46552B2FDD642B2DDC35
:40058000154A14210BA802F0DBF83FE0C02F0000E82F0000FC2F0000103000003030000040300000583000007030000080300000C0030020300200208C3000009C3000003A
:4005C00064010020A4300000D8300000E8300000F4300000043100000C3100002E4B1B7B5BB2002B0BD02C4B1B68552B07DD642B05DC2A4A14210BA802F0A2F806E00BAB78
:40060000274A03CA03C3190013780B7001230BAA1821002000F06AF9224B994506D90123214A2421002000F061F90FE01F4B994506D901231E4A2421002000F057F905E07E
:4006400001231C4A2421002000F050F9124B1B7F022B06D90123184A3021002000F046F913E0002B0BD0154A402110A802F068F8012310AA3021002000F038F905E00123ED
:400680000F4A3021002000F031F900F041F9322000F062FF44E6C04664010020183100002831000050C3000034310000204E00004431000050310000603100007031000024
:4006C0008431000070B506000D000A2200213C2001F09AFA0A21002001F024FB002405E0305D0A2101F01EFB0134E4B2AC42F7D30A2001F0EBFA70BD10B5054801F030F9DD
:40070000802292000021034802F012F810BDC046783400005005002010B50C4801F020F9FFF7EAFF0A4801F01BF901F03BF9FA20800000F011FF01F057FB1A210548FFF750
:40074000C1FF054801F00CF9012010BD8C3400009C34000094320000B034000083B27F2B39D8002937DB1F2935DC012A04D0002A12D0022A20D02EE0CB17072213405B18C4
:40078000DB10DB01181807231940063B8B40124A115C0B4313541EE0CB17072213405B18DB10DB01181807231940063A8A400A490B5C93430B540EE0CB17072213405B1834
:4007C000DB10DB01181807231940063B8B40024A115C4B401354704750050020F0B54F464646C0B483B00600894601931300303BDBB2092B01D8303A44E01300413BDBB204
:40080000192B01D8373A3DE01300613BDBB2192B01D83D3A36E0203AD3B23F2B5DD89A00304B9B589F463E222CE040222AE0412228E0422226E0432224E0442222E04522D7
:4008400020E046221EE047221CE048221AE0492218E04A2216E04B2214E04C2212E04D2210E04E220EE04F220CE050220AE0512208E0522206E0532204E0542202E0552270
:4008800000E03F22002A28DB93009A18164B2C339846904400251EE043465F5D002416E03B002341DB0708D54B46E11809B2A81900B2019AFFF752FF07E04B46E11809B26D
:4008C000A81900B20022FFF749FF0134E4B2062CE6D90135EDB2042DDED903B00CBC90469946F0BD9431000094320000F8B504000E0017001D0007E02B0031002000FFF7F8
:400900006DFF063424B201373A78002AF4D1F8BDF0B5474680B406211748FFF7D3FE174D80239B00984621E043464246102A00D910239FB20A2200213C2001F065F90A21AE
:40094000402001F0EFF9002407E06E1C28780A2101F0E8F90134A4B23500BC42F5D30A2001F0B4F94346DF1BBBB298464346002BDAD104BC9046F0BD703400005005002035
:4009800030B583B005006B46DC1D0023237064220021572001F038F96421280001F0C2F964220121572001F091FA64222100012001F0DCF9642001F089F9207803B030BDC9
:4009C00070B505000C0064220021572001F01CF96421280001F0A6F96421200001F0A2F9642001F073F970BD70B505000E001400FFF7C6FF3100014021432800FFF7E0FF47
:400A000070BDC04610B5FF20FFF7BAFF10BDC04610B5FE20FFF7B4FF014B187010BDC0469001002010B5FFF7EDFF152803D1FFF7EFFF012000E0002010BDC04610B5402282
:400A4000BF210920FFF7D0FF002408E00920FFF797FF430605D5012000F07EFD0134632CF4D910BD10B50200F8210920FFF7BCFF10BDC04610B502009F210A20FFF7B4FFF3
:400A800010BDC04610B50200E3210A20FFF7ACFF10BDC04610B50200FC210A20FFF7A4FF10BDC04610B501000C20FFF789FF10BD10B501000D20FFF783FF10BD10B5010045
:400AC0000E20FFF77DFF10BD10B502001F210820FFF78AFF10BDC04610B51022EF210820FFF782FF10BDC04610B500210420FFF767FF00210520FFF763FF00210620FFF74E
:400B00005FFF10BD10B502280ED002D8012805D01DE003280FD0042813D018E00A00F8211120FFF761FF12E00901CAB28F211120FFF75AFF0BE00A00F8211220FFF754FFFC
:400B400005E00901CAB28F211220FFF74DFF10BD10B50420FFF714FF10BDC04610B50620FFF70EFF10BDC046F8B505000F0014001E00FFF763FF012F03D10020FFF7A4FF8B
:400B800020E0022F03D12020FFF79EFF1AE0042F03D14020FFF798FF14E0082F03D16020FFF792FF0EE0102F03D18020FFF78CFF08E0202F03D1A020FFF786FF02E04020BF
:400BC000FFF782FFFFF788FF032C03D10720FFF749FF08E0022C03D10320FFF743FF02E00220FFF73FFF444B1C70444B079A9A4203DC0020FFF73EFF12E0414B079A9A42C8
:400C000003DC2020FFF736FF0AE03E4B079A9A4203DC4020FFF72EFF02E06020FFF72AFF632E03DC0020FFF72DFF2CE0C72E03DC0420FFF727FF26E09023FF339E4203DC1B
:400C40000820FFF71FFF1EE02F4B9E4203DC0C20FFF718FF17E02D4B9E4203DC1020FFF711FF10E02A4B9E4203DC1420FFF70AFF09E0284B9E4203DC1820FFF703FF02E0E0
:400C80001C20FFF7FFFE069B752B03DC0020FFF701FF12E0069BD62B03DC0120FFF7FAFE0BE0CD235B00069A9A4203DC0220FFF7F1FE02E00320FFF7EDFE2800FFF7F2FEC1
:400CC0002800FFF7F5FE022C02D92800FFF7F6FE01210120FFF716FF012C03D902210220FFF710FF022C03D903210320FFF70AFFFFF7FAFEF8BDC046C4000020FF0F00003C
:400D0000FF1F0000FF3F00001F030000E70300003F0600007F0C0000064A3023D35C3121505C1B1ADBB258B2002801DA043358B2C0B2704750070020024A3123D35C9B0091
:400D40009858704750070020034A3123D35C04339B0098587047C0465007002010B5FFF7DBFF002806D004483121435C013303221340435410BDC0465007002000B583B04A
:400D80006B46D91D00230B70642200F0EFFF002802D16B46D87900E0002003B000BDC046F0B5474680B4FFF7D9FE0400FFF7D0FE844200D190E0061B00D520364B4B1C789F
:400DC000744363001C1964220021572000F01CFF002800D082E06421073000F0A3FF00287ED164220121573001F070F800286CD078E03F483021435C01330322134043545E
:400E00000020FFF7BBFF07000020FFF7B7FF0500032C01D1012000E00020FFF7AFFF030038042D02284318438003800B304A3023D35C9B009850E71E002F48DD2B4B1B7821
:400E4000012B20D90020FFF799FF80460020FFF795FF0500032F01D1012000E00020FFF78DFF0300424610042D02284318438003800B1F4A3023D35C04339B009850063CFA
:400E8000002C01DC23E03C00184B1B78022B1CD90020FFF773FF07000020FFF76FFF0500032C01D1012000E00020FFF767FF030038042D02284318438003800B0C4A302351
:400EC000D35C08339B009850033C002C91DC642000F0FCFEB0B206E0002004E0002002E0002000E0002004BC9046F0BDC40000205007002070B50500002407E0FFF750FF39
:400F0000002807D1013000F027FB0134AC42F5D3002000E0012070BD10B5FA20FFF7EAFF002806D0044A3023D35C04339B00985800E0002010BDC04650070020F0B547466B
:400F400080B482B0019008001900089B984600230360012628E0B3009F5847451FDD164BF3189B009B589F4202DC18E0013500E001257419A14203DDA3009B589F42F5D078
:400F8000A3009B589F420CDD03680E2B0BDC5C1C04609B00019CE6500135761904E0013602E0260000E026004B1E9E42D3DB02B004BC9046F0BDC046FFFFFF3F70B5012694
:400FC00011E0B300C558330002E09C000251013B002B05DD054A9A18920012589542F4DB9B00C55001368E42EBDB70BDFFFFFF3FF0B59446012215E09300CF58130002E014
:401000009D004C51013B002B09DDBC002658074C1C19A4006458A5002D58AE42F0DC9B00CF5001326245E7DBF0BDC046FFFFFF3FF8B54F464646C0B404000D0010001E005B
:401040000A682100FFF7D4FF01277F4221E07B1C9C462B60180019E08300E3181A68791C03D0B9006158884602E00121494288464146521AB24202DC71428A4205DA2A685B
:40108000511C296092001B68A35001304845E3DB67462B6899469F42D9DB19002000FFF78DFF0CBC90469946F8BDC04670B582B005000C001600069A00923200FFF73EFFFA
:4010C000079B320021002800FFF7B2FF2368089A934200DD1300236002B070BDF0B55F4656464D464446F0B4A3B006000D0017000B930023002003E09A009259801801339F
:40110000AB42F9DB290001F071F90400002305E099008A59A21AA2480A500133AB42F7DB0024AC4616E09E49A500601C83005B586A5890464344A21C920052589B180334A2
:40114000A40062589B18DA1703242240D3189B106B5004005F2CE6DD65460020002304E099008F4A8A5880180133632BF8DD642101F0C6F904001D2800DC1E243C2C00DD0B
:401180003C24002304E09900002012AA885001330E2BF8DD0F2302930B3B0193009460337F4A21A912A8FFF781FF219B012B0ADC21E012A88B001B584A1E920012589B1A0E
:4011C000E418013103E000240121AC461D00A942EFDBA846654641460139200001F090F90100704801F08CF92D9B186001232E9A137000220EE06C4B2D9A136000232E9A16
:401200001370F6E793006649F05858506749F85858500132AA42F5DB219B9946002304E0990000200DAA88500133042BF8DD002348460CE09A0012A95258642A06DD5A4BB1
:401240000B9A136000232C9A1370A2E001338342F0DB00231E0000270A9307906BE05A1C1100059212AA890089589B009B589946CB1A0693032B10DC5CE09A0048481258A4
:40128000944201DA1E0014009A0048481258954201DA1F001500013303E04B46FF24240625008B42E9DB414B9A468B0098464B469B00524609939A589346524641468A5825
:4012C0005946501A4A46BB1A5843069901F018F95844BA009346524659468B581A1A08922F488246414608585146099B5B589846C01A4B46F31A5843069901F001F940441A
:4013000053465946CB58191A089A5443E4114D43E91100290EDD0A9D042D0BDC002C09D06420604301F0ECF8AA000DABD0502B0001330A93059B079A013A93428FDB0A9CB4
:4013400021000DA8FFF73AFEE30FA44663445B10012B0ADD5A1E0DA9920052589B005B58D318DA0FD3185B1002E09B000DAA9B58DA1EB42A07D80E4AD35C0B9A13600123E7
:401380002C9A137005E0084B0B9A136000232C9A137023B03CBC90469946A246AB46F0BD84070020DC05000019FCFFFF14090020C0340000F0B50025002711E0BB00C65897
:4013C000F3B2FF22964308E06A008A181478A419527822700135013BDBB2002BF4D10137032FEBD9F0BDC04610B50A00002101F09FF910BD10B501F06FF903680C2B00D10E
:40140000FEE7FEE710B50300084A1068C318084A9A1A802A02DC054A136005E001F05CF90C2303600120404210BDC046C8000020D00A002070B50F4E0F4D13E029686B68DB
:40144000AC68002202E001C901C30432A242FAD1E868002202E0002102C304328242FAD11035013E002EE9D101F03CF9FEF7EEFEFEE7C046010000004836000010B500231D
:401480000AE0032B03D89A000949505800E009489900094A885001332F2BF2D9FEF710FE8022D205116801230B43136010BDC04600000000F5130000000000201F231840E8
:4014C0001E3B8340014A13607047C04600E100E01F2318401E3B8340014A13607047C04680E100E001BE704770B504000D001F2802D90020FFF7F6FF1034A40080239B051E
:401500009C4664442068256070BDC04670B504000E00032902D90020FFF7E4FF1F2C02D90020FFF7DFFF03252540ED00063500F0A9FDA408A400074B9C466444216803236A
:40154000AB4099430B003100A9401943216000F09DFD70BD00E400E010B5040006E0084B586800F085FD074B9C46644480231B029C42F4D8024B9868604300F079FD10BD8A
:40158000CC0000200080FFFF10B5034B1B7B584300F06EFD10BDC046CC000020F0B557464E46C0B483B0040000F06CFD0190E71E2D2F74D83F4B1B78DBB29C4208D83E4B5A
:4015C0001B78DBB29A463D4B1B78DBB2994631E03B4B1B78DBB29C4208D83A4B1B78DBB29A46394B1B78DBB2994623E0374B1B78DBB29C4208D8364B1B78DBB29A46354B83
:401600001B78DBB2994615E0334B1B78DBB29C4208D8324B1B78DBB29A46314B1B78DBB2994607E02F4B1B78DBB29A462E4B1B78DBB299462D4BDE5D2F2E09D92A2C07D961
:4016400019222B4B1A60052000F012FD192503E0274B1D683F231D40B54206D9234BDA5D234B1A60052000F003FD1F4B9C4664442378DBB21F4A13601F4B52461A601F4BEE
:401680004A461A600520FFF77FFFB5420AD2174BDA5D174B1A60052000F0EAFC02E00020FFF720FF019800F0F1FC03B00CBC91469A46F0BDC0F1FF0FC1F1FF0FC2F1FF0F98
:4016C000C3F1FF0FC4F1FF0FC5F1FF0FC6F1FF0FC7F1FF0FC8F1FF0FC9F1FF0FCAF1FF0FCBF1FF0FCCF1FF0FCDF1FF0FC03500002CFF0B4028FF0B401CFF0B4020FF0B40B0
:40170000034B1868C0231B02184000D00120704700010B4010B500F0B5FC044A1368C02109020B43136000F0B1FC10BD00010B4010B500F0A7FC08490A68084B1A40802491
:40174000E40122430A600A6813408022120213430B6000F09BFC10BD00010B40FF3FFFFF70B5050000F08EFC0400FFF7C9FF002803D0FFF7DDFF012100E00021084828408F
:40178000084A1568084B2B40184310601368012901D1FFF7BFFF200000F078FC70BDC0460404040010020B40FBFBFBFF10B5244B1B685B0715D5234B1B685B070ED5224BF0
:4017C000D969042001401F4C22688A432260DA698243DA611B69002B00D098470420FFF7BFFF174B1B685B0518D5164B1B685B0510D5154BD9698022D20011401148026800
:401800008A430260D969114A0A40DA615B69002B00D098478020C000FFF7A2FF084B1B685B030CD5074B1B685B0304D5064B9B69002B00D098478020C002FFF791FF10BDBD
:4018400010020B40E000002094010020FFFBFFFF10B500F06FF810BD10B500F01DF810BD10B5044A1368802109060B431360FFF7EFFF10BD0000074010B5064B1B78002B13
:4018800004D1FFF7E9FF0122024B1A70FFF7E8FF10BDC046B4010020134A144B1A600023134A13601349144A1160144A14490A6007201449086014490B60063813490860C7
:4018C00013490A60134A1360134A1360134A1360134A1360134A1360134A1360134A13601268134B1A8070470B000002000007404000074001000A0048000740070000804D
:40190000000307400403074010030740440007400002074004020740880E0740C80E0740480F0740080F0740C80F0740880F0740B6010020064A1168064B0B4090210904A8
:401940000B431360044B1A88044B1A607047C04600000140FFFF0FFFB6010020880F074070B50500002402E000F094FB0134285D0028F9D170BDC04610B50A20FFF79EFD1F
:4019800010BDC04610B500F01DF810BD10B5044A1368802109060B431360FFF7EDFF10BD0000064010B5064B1B78002B04D1FFF7E9FF0122024B1A70FFF7E8FF10BDC04698
:4019C000B801002010B51B4A11680C230B4313600024194B1C60194A194B1A60194B1A4A13601A4A14601A4A14601A4A13601A4B1C600A20FFF76CFD03210A20FFF786FD43
:401A000016490A20FFF770FD154B1C60154B1C60154B1C60154B1C60154B1C60154B1C601022154B1A70154B1C80154B1C60154B1C6010BD700006400000064077080080FA
:401A400060000640070100800003064004030640100306400002064004020640B1200000C80E0640880E0640480F0640080F0640C80F0640880F0640A40A0020B40A00204C
:401A8000C40A0020AC0A002010B5144A13685B005B081360002312490B6012490B601248046812492140016011490B6011490B601149124B19601249124B19601249134B5D
:401AC00019601349134B19601021134B19701368802109060B43136010BDC04600000640680006406C00064060000640FF5CFFFF880F0640C80F0640F3070000800F0640F5
:401B0000ED0F0000C00F0640FF0F0000400F064017030000000F0640A40A002010B504000368002B09D00120FFF72EFD2368013B2360002B03D0002003E0002001E080204E
:401B4000000610BD10B5002839DBC023034208D00022284B1A601032274B1A70002310243DE0C3070FD5244B1B781B072BD5234B1B685B0001D5002300E0012310211E4A1C
:401B8000117001242BE0C30520D4830722D4C30605D51022184B1A70002300241FE0164B1B781B0719D5144B1B78DB0701D5252200E02422104B1A70002300240FE00123D6
:401BC000802424060BE00123012408E001238024640004E00023022401E000230024012B02D1FFF751FF02E0054A064B1A60200010BDC04668000640A40A00206000064024
:401C000017030000000F064070B582B004000D001600244B1B78102B40D10A20FFF758FC214B1B68DB0734D4FA239B005E43019600221E4B1A601E4A1E4B1A601E4A1F4B0A
:401C40001A606400FF231C40002D03D12422154B1A7004E02522134B1A7001231C43184B1C600222174B1A60124B1C680823FF3320001840144B1B68C02423401843040024
:401C800001A8FFF74BFF2043EED0FFF75BFF040000E008240A20FFF711FC00E00424200002B070BDA40A002064000640080F064017030000000F0640ED0F0000C00F064031
:401CC0004002064068000640400F064010B582B0104B1B789B061AD5FA239B00584301900D4B1B689B0601D5182200E010220B4B1A600B4B18681223FF331840040001A810
:401D0000FFF70CFF2043F4D0FFF71CFF00E0042002B010BDA40A00206400064068000640000F064010B582B00D4B1B789B0613D5FA239B00594301910A4B18600A4B186879
:401D40000823FF331840040001A8FFF7E7FE2043F4D0FFF7F7FE00E0042002B010BDC046A40A002040020640000F0640F0B583B004000D00164B1B789B0626D5FA239B00AF
:401D80005A430192134B18680223FF3318400700114B1B6804261E4001A8FFF7BFFE384333000343EED0002E05D00C4B1B682B700B4A094B1A60FFF7C5FE002806D1002C6B
:401DC00004D10422074B1A6000E0042003B0F0BDA40A0020000F0640C00F064040030640ED0F00006800064010B50A20FFF770FB044B1C88A4B200221A800A20FFF75EFB7F
:401E0000200010BDB40A002070B52B4B1B6820251D402A4C03E00120FFF7B6FB013C00F089F8002801D1002CF5D1002C43D0002000F088F8224A13680F218B431360214ACA
:401E400013685B005B081360002D18D0002000F079F80A20FFF798FB012000F073F80A20FFF792FB154C03E00120FFF78DFB013C00F074F8002803D1002CF5D100E00F4C9F
:401E8000002C08D0002000F05DF80A20FFF77CFB01220D4B1A600B4A1368802109060B43136007490B680F229343013A13430B60012000F047F870BD64000640204E000091
:401EC00010000140000006406800064010B582B0154B1B789B0623D5FA239B005A4301924000FF240440002903D124220E4B1A7004E025220C4B1A7001231C43FFF784FF5D
:401F00000A4B1C600A4B18680823FF331840040001A8FFF703FE2043F4D0FFF713FE00E0042002B010BDC046A40A002040020640000F0640024B18684008012318407047F8
:401F400004040440044A1368DBB201218B430840184310607047C04600040440024B1B68012018407047C0460404044010B500F089F8044A136801218B43136000F086F895
:401F800010BDC046000005400004000C014B18607047C046080105400004000C014B18607047C046140105400004000C014B18607047C0460C01054070B504000D0000F036
:401FC00061F8AC40024B1C6000F060F870BDC0460800054010B500F055F8064A116801230B43136000F052F818210120FFF7E4FF10BDC04600000540014B18607047C04655
:402000003801054010B50E4C8023DB042360236823600020FFF7B8FF236823600C22094B1A600120FFF7E8FF3122074B1A60074C2000FFF7B1FF2000FFF7B6FF10BDC04645
:40204000000105402401054028010540FFFF000010B5064B1B78002B04D1FFF7D3FF0122024B1A70FFF7B6FF10BDC046C00100200230800804D0C0460138FDD1C046C046D3
:40208000C0467047EFF3108072B6704780F310887047C046044B1B680F221340082BF9D0024B18607047C046080207404002074010B5AD4B1B68002B00D09847AB4B1B6809
:4020C000DB0702D50022AA4B1A60AA4B1B789B0628D5A94B1B68DB0507D5A84A1188C0239B000B431380012300E00023A24A1268D20706D5A14A118890239B000B4313805F
:402100000123002B0FD09B4A1278D20701D5012200E002229949088802430A800021954A117000E00023934A1278920600D414E1914A1268D20611D51022914B1A608D4B2C
:402140001B78DB0701D5012300E002238B4A11880B4313801022874B1A7004E1854A1278120720D5844A126892070AD50222844B1A60824A118888239B000B4313800123E5
:4021800011E07C4A1278D20703D52521794A117009E02421774A11707A4A1268002A02D01439794A1160734A1278520700D4ABE0704A1278D20749D5744A1268120727D5F1
:4021C000734A1268734909680F240C40724909686418141B082C09D8002C16D16F4A11686F4B0B401360012308340EE008240CE0694A11686B48006841186B480068C0B2C0
:402200000870116801311160013C002CF0D119E05E4A1268520715D55F4A116861480068411861480068C0B208701168013111601168574A1268914203D204215B4A116068
:4022400000E001235A495B4A11605DE04A4A1268920726D502224A4B1A6057490B680D321A40096880231B020B4000D001239B18524A1168CB1A13601268514B1A603F4A3A
:40228000118884239B000B4313804E4B1A68802149020A431A6019684B4A0A401A60012332E04A4A1268D20612D424E0434A1168344A1268914211D2404A11684448006809
:4022C00041180978C9B243480160116801311160394A12680F210A40082AE7D1374A1168284A1268914202D14021274A11603A493A4A116008E0354A1268520604D52F4B4D
:402300001A682F4B1A600123002B2CD0234A1168234B0B4013600023314A13601A4A1360304B1B789B070ED5124B1B78DB0701D5092300E00A23114A11880B431380602217
:402340000C4B1A700FE0284B1B689B0601D5182200E01022154B1A6005E0064B1B78DB0601D4FFF791FB10BDBC0100208C0E0640880E0640A40A00200C0F0640B40A002086
:40238000000F0640B00A0020880F0640CC0F0640C00A002008030640C40A002060000640FFFEFFFFB80A00204003064068000640ED0F0000C00F064008020640A80A0020DA
:4023C000AC0A002004020640FFFFFEFF8C0F0640C80A002040020640F3070000800F0640C80F0640BC0A002064000640002243088B4274D303098B425FD3030A8B4244D36C
:40240000030B8B4228D3030C8B420DD3FF22090212BA030C8B4202D31212090265D0030B8B4219D300E0090AC30B8B4201D3CB03C01A5241830B8B4201D38B03C01A52416F
:40244000430B8B4201D34B03C01A5241030B8B4201D30B03C01A5241C30A8B4201D3CB02C01A5241830A8B4201D38B02C01A5241430A8B4201D34B02C01A5241030A8B4236
:4024800001D30B02C01A5241CDD2C3098B4201D3CB01C01A524183098B4201D38B01C01A524143098B4201D34B01C01A524103098B4201D30B01C01A5241C3088B4201D32B
:4024C000CB00C01A524183088B4201D38B00C01A524143088B4201D34B00C01A5241411A00D20146524110467047FFE701B5002000F0F0F802BDC0460029F7D076E770476B
:4025000003460B437FD4002243088B4274D303098B425FD3030A8B4244D3030B8B4228D3030C8B420DD3FF22090212BA030C8B4202D31212090265D0030B8B4219D300E0EE
:40254000090AC30B8B4201D3CB03C01A5241830B8B4201D38B03C01A5241430B8B4201D34B03C01A5241030B8B4201D30B03C01A5241C30A8B4201D3CB02C01A5241830A6B
:402580008B4201D38B02C01A5241430A8B4201D34B02C01A5241030A8B4201D30B02C01A5241CDD2C3098B4201D3CB01C01A524183098B4201D38B01C01A524143098B422C
:4025C00001D34B01C01A524103098B4201D30B01C01A5241C3088B4201D3CB00C01A524183088B4201D38B00C01A524143088B4201D34B00C01A5241411A00D201465241B5
:40260000104670475DE0CA0F00D04942031000D34042534000229C4603098B422DD3030A8B4212D3FC22890112BA030A8B420CD3890192118B4208D3890192118B4204D3B2
:4026400089013AD0921100E08909C3098B4201D3CB01C01A524183098B4201D38B01C01A524143098B4201D34B01C01A524103098B4201D30B01C01A5241C3088B4201D3AD
:40268000CB00C01A524183088B4201D38B00C01A5241D9D243088B4201D34B00C01A5241411A00D20146634652415B10104601D34042002B00D54942704763465B1000D37F
:4026C000404201B5002000F005F802BD0029F8D016E770477047C046014B18687047C046440100200E4B70B500251E000D4CE41AA410A54204D0AB00F35898470135F8E715
:4027000000F090FF084B00251E00084CE41AA410A54204D0AB00F35898470135F8E770BD3036000030360000303600003836000003008218934202D019700133FAE7704773
:402740000CB430B5164B9DB00C1E1D6804DA8B2301202B6040421DE0822302A99B008B810023029008619C4200D0631E8B604B6101235B42CB81209A21AB2800019300F086
:4027800073F8431C01DA8B232B60002C02D00023029A13701DB030BC08BC02B01847C04644010020F0B58E6885B007000C00039201939E4243D890238A89DB001A423ED0F0
:4027C00003250969236801985B1A029363695D43EB0F5D19029B6D1001331B18AB4200D91D00530510D52900380000F041FB061E14D0029A216900F0D0FAA289194B13403D
:4028000080221343A38112E02A00380000F090FB061E0CD12169380000F0DEFA0C23402201203B60A38940421343A38117E0029B2661F61826606561019EED1AA560019BF1
:40284000B34200D21E0032000399206800F0AEFA0020A3689B1BA36023689E19266005B0F0BDC0467FFBFFFFF0B59FB0029005938B890F0016001B0610D50B69002B0DD11F
:40288000402100F0F5FA38603861002804D10C23029A01381360D8E040237B61002306AD6B6120336B761033AB7634002378002B03D1A31B049312D003E0252BF9D00134CC
:4028C000F4E7A31B320039000298FFF76BFF431C00D1B4E06A69049B944663446B612378002B00D1ABE00122002352426A6002A95432521801342B60EB60AB601370AB654D
:40290000534E21780522300000F03CFA002807D00123801B83402A68013413432B60EFE72B68DA0604D55322202102A8121811701A0704D553222B2102A8121811702278E0
:402940002A2A03D0099B00200A210EE0059A111D12680591002A01DB099204E05242EA60022213432B6001340BE02278303A092A04D84B4301349B180120F6E7002800D06F
:40298000099323782E2B1ED163782A2B0AD1059B02341A1D1B680592002B01DA01235B42079310E000230A201A0001346B6021783039092904D84243013452180123F6E779
:4029C000002B00D00792234E21780322300000F0D9F9002806D04023801B83402A68013413432B60217806221B48661C297600F0C9F9002812D0194B002B06D10722059B8B
:402A0000073393430833059314E005AB00933A00134B2900029800E000BF07E005AB00933A000F4B2900029800F08AF80390039B013304D06B69039A9B186B6135E7BB8906
:402A40000B985B0601D5012040421FB0F0BDC046F0350000F6350000FA35000000000000A5270000F7B5170001938A680B6900900C00934200DA130022003B604332127835
:402A8000002A01D001333B6023689B0602D53B6802333B60062523681D401ED0230043331B785A1E9341226892061CD53020E1184331087021005A1C45310978A218433258
:402AC000023311700FE022000123193201990098089EB047431C0ED00135E3683A689B1A9D42F0DBDAE72200019943320098089DA847431C02D10120404220E0062320686E
:402B0000E1683A6803400025042B03D18D1AEB43DB171D40A3682269934201DD9B1AED180027BD420AD0220001231A3201990098089EB047431CDED00137F2E70020FEBDBE
:402B4000F0B58BB006920A0043320793059004920A7E0C00109B6E2A00D1ABE011D8632A22D009D8002A00D1B5E0582A00D0C5E045310A70814A4FE0642A1DD0692A1BD0B3
:402B8000BCE0732A00D1AAE009D86F2A29D0702A00D0B3E0202209680A43226037E0752A1FD0782A33D0A9E00E001A684236111D196013683370A4E021681A68080606D478
:402BC000490604D5111D19600023D55E02E0111D19601568002D3BDA2D23049A6D42137036E021681A68080606D4490604D51568111D1960ADB202E0111D196015685F4BE4
:402C0000227E039308276F2A1DD00A271BE022007821453211705A4A19680392081D226818600D68100602D4500600D5ADB2D30702D520231A4322601027002D03D12023B0
:402C400022689A4322602300002243331A7002E00A274A4B03936368A360002B09DB0422216891432160002D05D1049E002B11D07BE0002D79D0049E28003900FFF73CFC54
:402C8000039B013E5B5C280033703900FFF7AEFB051EF1D1082F09D12368DB0706D563682269934202DC3023013E3370049B9B1B23612BE009681A68080607D4490605D578
:402CC000111D19601368A28A1A8004E0111D1960136862691A600023049E236116E01A68111D1960166800216268300000F04AF8002801D0801B6060636803E026004236CE
:402D00003270012323610023049A1370079B09AA00932100069B0598FFF7A4FE431C02D10120404227E02369320006990598079DA847431CF4D0236800259B070FD4099BC1
:402D4000E068984217DA180015E022000123193206990598079EB047431CE1D00135E368099A9B1A9D42F0DBE9E72600039B42361B7833708EE70BB0F0BDC04601360000DB
:402D800012360000C9B28218904204D003788B4202D00130F8E700207047002310B59A4203D0CC5CC4540133F9E710BD10B5884202D98B18984201D3002305E09B1A013AA4
:402DC00008D3995C8154FAE7934203D0CC5CC4540133F9E710BD000070B50500002944D00C1F2368002B00DAE418280000F0D8F81E4A13681100002B02D16360146031E044
:402E0000A3420DD92268A018834203D118685B688218226063600C6024E0A24203D813005A68002AF9D11E689819A0420BD12168711858181960824214D1106852684118AE
:402E400019605A600EE0A04202D90C232B6009E021686018824203D1106852684118216062605C60280000F09CF870BDC8010020032370B5CD1C9D43083506000C2D01D289
:402E80000C2501E0002D01DBA94202D90C23336048E0300000F084F8234B1C681A002100002913D00B685B1B0DD40B2B02D90B60CC181EE08C4202D1636813601AE04B68BE
:402EC00063600C0016E00C004968E9E7174C2368002B03D1300000F051F820602900300000F04CF8431C18D00323C41C9C43A0420DD12560300000F054F8200007220B30BC
:402F0000231D9043C31A0ED05A42E2500BE0211A300000F033F8431CEBD10C233000336000F03FF8002070BDC8010020C4010020F8B506000C001500002904D11100FFF75C
:402F400097FF040018E0002A03D1FFF745FF2C0012E000F027F885420ED929003000FFF787FF071E07D021002A00FFF716FF21003000FFF731FF3C002000F8BD002370B5B5
:402F8000064C050008002360FEF73CFA431C03D12368002B00D02B6070BDC046CC0A0020704770470B1F1A68101F002A04DA891804390B68D018043870470000000000001A
:402FC0000A0D5374617274696E67204D41583330313032202B204F4C45442050726F6772616D2E2E2E0A0D004F4C454420696E6974206661696C6564210A0D004D4158337C
:403000003031303220496E69742E2E2E000000004552524F523A204D41583330313032206E6F74206465746563746564210D0A004D41583330313032204552524F5200003E
:403040004D415833303130322064657465637465642E0D0A000000004D4158333031303220636F6E666967757265642E0D0A0000506C6163652066696E676572206F6E00E9
:4030800073656E736F722E2E2E000000436F6C6C656374696E672064617461002564252500000000526177202D2048523A20256C64202876616C69643A202564292C2053D8
:4030C000704F323A20256C64202876616C69643A202564290D0A00004865617274204D6F6E69746F7200000048523A20256C642062706D0048523A20256C642062706D2A5F
:403100000000000048523A202D2D000053704F323A20256C6425250053704F323A20256C6425252A0000000053704F323A202D2D000000005369676E616C3A20476F6F6424
:40314000000000005369676E616C3A204F4B0000506C6163652066696E6765722100000052656164696E677320737461626C650053746162696C697A696E672025642F3309
:4031800000000000416E616C797A696E672E2E2E0000000026080000820800006A0800007208000076080000560800007A0800006E0800005A0800005E080000520800003E
:4031C0004A0800002E0800003E0800002A08000046080000DA080000DA080000DA080000DA080000DA080000DA080000DA080000DA080000DA080000DA0800003208000073
:4032000036080000DA0800004E080000DA0800003A0800007E080000DA080000DA080000DA080000DA080000DA080000DA080000DA080000DA080000DA080000DA0800009A
:40324000DA080000DA080000DA080000DA080000DA080000DA080000DA080000DA080000DA080000DA080000DA080000DA080000DA080000DA080000DA080000DA0800002E
:4032800062080000DA08000066080000DA08000042080000AED580A81FD300408D142000A1C8DA02818FD9F1DB40A4A62EAF00000080C0E0F0F8FCFE000103070F1F3F7F30
:4032C0003E5149453E00427F400042615149462141454B311814127F1027454545393C4A49493001710905033649494936064949291E7E1111117E7F494949363E4141411F
:40330000227F4141221C7F494949417F090909013E4149497A7F0808087F00417F41002040413F017F081422417F404040407F020C027F7F0408107F3E4141413E7F0909FE
:4033400009063E4151215E7F09192946464949493101017F01013F4040403F1F2040201F7F2018207F63140814630304780403615149454320545454787F48444438384422
:40338000444420384444487F3854545418087E0901020C5252523E7F0804047800447D40002040443D007F1028440000417F40007C041804787C0804047838444444387C0C
:4033C00014141408081414187C7C080404084854545420043F4440203C4040207C1C2040201C3C4030403C44281028440C5050503C4464544C44000000000000005F0000A3
:403400000060600000008060000000363600000080363600020151090608080808088080808080601008040308083E0808141414141414083E08146264081323001C22414F
:40344000000041221C00007F4141000041417F0003000300000003000000147F147F14242A7F2A1236495522503E415D551E00002200FF21007F0000436C656172696E6704
:4034800020446973706C61790A0D00005374617274696E6720696E69740A0D00436C656172656420446973706C61790A0D00000053656E7420436F6D6D616E64730A0D0008
:4034C0005F5F5F6060606161616161626262626263636363636363636464646464646464646464646464646464646464636363636363636362626262626261616161606030
:4035000060605F5F5F5E5E5E5D5D5D5C5C5C5B5B5A5A59595958585757565655555454535252515150504F4E4E4D4C4C4B4A4A494848474645454443424241403F3E3E3D3C
:403540003C3B3A39383837363534333231302F2E2D2C2B2A2928272625242322211F1E1D1C1B1A19171615141311100F0E0C0B0A090706050302010000300F40000400408D
:403580000F400004E280E61053046F20D420DA80032062048B048E049708A720C010D8401908230189088F01C608C808E201E60802330F4004400F4008410F4008430F4016
:4035C000030405060708090A0B0C0E0F101112131415161718191B1C1D1E1F2021222325262728292A2B2E2F3031323334354300232D302B2000686C4C00656667454647A9
:40360000003031323334353637383941424344454600303132333435363738396162636465660000F8B5C046F8BC08BC9E467047150200007D140000F8B5C046F8BC08BCED
:403640009E467047ED01000058360000C000002088000000880900000000000002000000D00A0020010000000000E02EC05D00001800000000366E01040404000000000049
:4036800000000000000000000000000000000000000000000000000000000000EE3500000000000000000000000000000000000000000000000000000000000000000000E7
:4036C00000000000000000000000000000000000000000000000000000000000E40000200000000000000000000000000000000000000000000000000000000000000000C6
:403700000000000000000000000000000000000000000000000000000000000000000000000000000000000000000000000000000000000000000000000000000000000089
:403740000000000000000000000000000000000000000000000000000000000000000000000000000000000000000000000000000000000000000000000000000000000049
:403780000000000000000000000000000000000000000000000000000000000000000000000000000000000000000000000000000000000000000000000000000000000009
:4037C00000000000000000000000000000000000000000000000000000000000000000000000000000000000000000000000000000000000000000000000000000000000C9
:0200000490303A
:0200000095E584
:0200000490402A
:200000000000000000000000000000000000000000000000000000000000000000000000E0
:0200000490501A
:0C000000000204C81193110104D9A77874
:0200000490600A
:0100000001FE
:00000001FF