:400000000010002011000000591400005914000010B501F041FAC04670B51C4C23688022D20213432360182001F0EAFA2268184B13402360174A184B1A601022174B1A602B
:400040002032174B1A601F3A164B1A600F32164B1A6080221206154B1A6000252560144A144B1A60144A154B1A60154A154B1A60154A164B1A601649092001F067FA0920DF
:4000800001F04EFA134B1D6070BDC04600010B40FFFFFBFF0600008004010B40080202400C020240200202402402024008010B400E0000800000024017000080400002403A
:4000C000CF000080800002402F75008004000240111800000C020B4010B572B600240FE02B486200131959000B00411889881A5AC31858880004104301F0A8F90134E4B251
:40010000012CEDD9224801000C31303001F084F9204A214B1A60C0229204204B1A60EE2212021F4B1A60EE221E4B1A6099231B041D4A13608A21C9031C4A11601C4A1360D2
:40014000802189051B4A11601B4A13601B4A117806230B43DBB213702423194A13601949194A11602021194A11602031184A1160C0214903174A1160D8210901164A1160CE
:400180000321164A1160164A1360FFF745FF10BDA03600000003990000000140040001400C0001401000014000500F4008500F4010500F4018500F4030500F4000700F40A0
:4001C00000000440801103000800044018000440000104400801044008030440000404400804044010B5064C2378002B07D1054B002B02D0044800E000BF0123237010BD95
:4002000048010020000000006C310000084B10B5002B03D00749084800E000BF07480368002B00D110BD064B002BFBD09847F9E7000000004C0100206C310000C0000020F0
:400240000000000010B50122024B1A70012001F0DFFF10BD64010020F0B5474680B4A2B062B601F0D1FB01F039FBD34801F0AAFB00F01CFA00280FD1D04801F0A3FB01F074
:4002800019FFFA24A400200001F098F901F0A0FE200001F093F9F2E700F0FEF900F08CFB00280BD1C64801F08DFB0123C54A0021002000F0E5FA00F0F5FAFEE780235B01CE
:4002C00001939C23FF3300936A3BFF3B022204213F2000F013FC0123BB4A0021002000F0CFFA0123B94A0C21002000F0C9FA00F0D9FAFA20800001F061F901F079FFB44809
:4003000001F010FF00239846B24B1B78002B00D1EFE00022AF4B1A7000F0DAFD00F0D6FC040000F0DBFCAC4B984205D9A94B01225A7000229A7009E0A64A93780133DBB206
:4003400093700A2B02D90022A24B5A70A14AD3789900A24D4C51A24C08510133DBB2D370632B00D8C5E013000022DA7001329446E0445B78002B00D1BBE0964C231D220082
:400380000832029222000C3201922200103200922A006421924800F0C9FE1023E3560393636802930823E3560193E368009343468C4A50210EA802F09BFA0823E356002B72
:4003C00004D1844B1B7C5BB2002B02D00EA801F0F9FA804B1B7A5BB2002B12D07D4BDB681E2B0EDDB32B0CDC7A494A7C92008A1853612823CB5C042B16D8013328228B5442
:4004000012E02823734AD35C002B0DD0537C002B02D05A1ED2B200E004226E4992008A1852699B00CB185A616A4B1B7C5BB2002B0FD0684B5B68462B0BDD642B09DC043301
:40044000642B00DD642363494A7C92008A18D36212E028235F4AD35C002B0DD0537C002B02D05A1ED2B200E004225A4992008A18D26A9B00CB18DA62564C607C0130052121
:4004800002F0FCF961740023002500210026002018E01A009C004F4F3C19646927001F3F942F02D800190131C9B29200494CA218D26A1400473C1D2C02D8B6180135EDB201
:4004C0000133DBB22822434CA25C9342E1D3002902D002F0EDF800E000203E4B1864002D04D02900300002F0E3F800E00020394B586400F0DBFC040000F0CEF8354B5B78C9
:40050000002B02D0384B9C4212D80123374A0021002000F0B5F90123354A0F21002000F0AFF90123334A1921002000F0A9F989E001232E4A0021002000F0A2F9254B1B6C0F
:400540001A001F3A942A05D82B4A142104A802F0CFF907E004AA294B19680491998891809B799371012304AA0C21002000F088F9184B5B6C1A00473A1D2A05D8204A1421DC
:4005800009A802F0B5F906E009AB1E4A03CA03C3190013780B70012309AA1821002000F06FF9194B9C4233D90123184A2821002000F066F946E0C04670310000983100008C
:4005C000AC310000CC310000DC310000E43100004502000064010020204E000078030020E8010020F43100001F4E00003432000044320000583200006432000070320000F1
:40060000783200008432000080380100903200000F4B9C4206D901230E4A2821002000F02FF90FE00C4B9C4206D901230B4A2821002000F025F905E00123094A2821002013
:4006400000F01EF900F02EF90A2000F0B7FF5BE650C30000A4320000204E0000B4320000C032000070B506000D000A2200213C2001F0FCFA0A21002001F086FB002405E08E
:40068000305D0A2101F080FB0134E4B2AC42F7D30A2001F04DFB70BD10B5802292000021014802F01DF910BD0805002010B50C4801F088F9FFF7F0FF0A4801F083F901F07E
:4006C000A3F9FA20800000F079FF01F0BFFB1A210548FFF7C7FF054801F074F9012010BDB4350000C4350000D0330000D835000083B27F2B39D8002937DB1F2935DC012A33
:4007000004D0002A12D0022A20D02EE0CB17072213405B18DB10DB01181807231940063B8B40124A115C0B4313541EE0CB17072213405B18DB10DB01181807231940063A51
:400740008A400A490B5C93430B540EE0CB17072213405B18DB10DB01181807231940063B8B40024A115C4B401354704708050020F0B54F464646C0B483B006008946019316
:400780001300303BDBB2092B01D8303A44E01300413BDBB2192B01D8373A3DE01300613BDBB2192B01D83D3A36E0203AD3B23F2B5DD89A00304B9B589F463E222CE04022AD
:4007C0002AE0412228E0422226E0432224E0442222E0452220E046221EE047221CE048221AE0492218E04A2216E04B2214E04C2212E04D2210E04E220EE04F220CE05022A1
:400800000AE0512208E0522206E0532204E0542202E0552200E03F22002A28DB93009A18164B2C339846904400251EE043465F5D002416E03B002341DB0708D54B46E11862
:4008400009B2A81900B2019AFFF752FF07E04B46E11809B2A81900B20022FFF749FF0134E4B2062CE6D90135EDB2042DDED903B00CBC90469946F0BDD0320000D03300000E
:40088000F8B504000E0017001D0007E02B0031002000FFF76DFF063424B201373A78002AF4D1F8BDF0B5474680B406211748FFF7D9FE174D80239B00984621E04346424697
:4008C000102A00D910239FB20A2200213C2001F0CDF90A21402001F057FA002407E06E1C28780A2101F050FA0134A4B23500BC42F5D30A2001F01CFA4346DF1BBBB2984614
:400900004346002BDAD104BC9046F0BDAC3500000805002030B583B005006B46DC1D0023237064220021572001F0A0F96421280001F02AFA64220121572001F0F9FA642297
:400940002100012001F044FA642001F0F1F9207803B030BD70B505000C0064220021572001F084F96421280001F00EFA6421200001F00AFA642001F0DBF970BD70B50500CD
:400980000E001400FFF7C6FF3100014021432800FFF7E0FF70BDC04610B5FF20FFF7BAFF10BDC04610B5FE20FFF7B4FF014B187010BDC046AC01002010B5FFF7EDFF15280A
:4009C00003D1FFF7EFFF012000E0002010BDC04610B54022BF210920FFF7D0FF002408E00920FFF797FF430605D5012000F0E6FD0134632CF4D910BD10B50200F821092017
:400A0000FFF7BCFF10BDC04610B502009F210A20FFF7B4FF10BDC04610B50200E3210A20FFF7ACFF10BDC04610B50200FC210A20FFF7A4FF10BDC04610B501000C20FFF73A
:400A400089FF10BD10B501000D20FFF783FF10BD10B501000E20FFF77DFF10BD10B502001F210820FFF78AFF10BDC04610B51022EF210820FFF782FF10BDC04610B50021D6
:400A80000420FFF767FF00210520FFF763FF00210620FFF75FFF10BD10B502280ED002D8012805D01DE003280FD0042813D018E00A00F8211120FFF761FF12E00901CAB2DB
:400AC0008F211120FFF75AFF0BE00A00F8211220FFF754FF05E00901CAB28F211220FFF74DFF10BD10B50420FFF714FF10BDC04610B50620FFF70EFF10BDC046F8B50500A9
:400B00000F0014001E00FFF763FF012F03D10020FFF7A4FF20E0022F03D12020FFF79EFF1AE0042F03D14020FFF798FF14E0082F03D16020FFF792FF0EE0102F03D18020F2
:400B4000FFF78CFF08E0202F03D1A020FFF786FF02E04020FFF782FFFFF788FF032C03D10720FFF749FF08E0022C03D10320FFF743FF02E00220FFF73FFF444B1C70444BE9
:400B8000079A9A4203DC0020FFF73EFF12E0414B079A9A4203DC2020FFF736FF0AE03E4B079A9A4203DC4020FFF72EFF02E06020FFF72AFF632E03DC0020FFF72DFF2CE0B0
:400BC000C72E03DC0420FFF727FF26E09023FF339E4203DC0820FFF71FFF1EE02F4B9E4203DC0C20FFF718FF17E02D4B9E4203DC1020FFF711FF10E02A4B9E4203DC1420CF
:400C0000FFF70AFF09E0284B9E4203DC1820FFF703FF02E01C20FFF7FFFE069B752B03DC0020FFF701FF12E0069BD62B03DC0120FFF7FAFE0BE0CD235B00069A9A4203DC10
:400C40000220FFF7F1FE02E00320FFF7EDFE2800FFF7F2FE2800FFF7F5FE022C02D92800FFF7F6FE01210120FFF716FF012C03D902210220FFF710FF022C03D9032103205B
:400C8000FFF70AFFFFF7FAFEF8BDC046C4000020FF0F0000FF1F0000FF3F00001F030000E70300003F0600007F0C0000064A3023D35C3121505C1B1ADBB258B2002801DAC3
:400CC000043358B2C0B2704708070020024A3123D35C9B009858704708070020034A3123D35C04339B0098587047C0460807002010B5FFF7DBFF002806D004483121435CCD
:400D0000013303221340435410BDC0460807002000B583B06B46D91D00230B70642201F057F8002802D16B46D87900E0002003B000BDC046F0B5474680B4FFF7D9FE0400D1
:400D4000FFF7D0FE844200D190E0061B00D520364B4B1C78744363001C1964220021572000F084FF002800D082E06421073001F00BF800287ED164220121573001F0D8F8E1
:400D800000286CD078E03F483021435C01330322134043540020FFF7BBFF07000020FFF7B7FF0500032C01D1012000E00020FFF7AFFF030038042D02284318438003800B0D
:400DC000304A3023D35C9B009850E71E002F48DD2B4B1B78012B20D90020FFF799FF80460020FFF795FF0500032F01D1012000E00020FFF78DFF0300424610042D022843EA
:400E000018438003800B1F4A3023D35C04339B009850063C002C01DC23E03C00184B1B78022B1CD90020FFF773FF07000020FFF76FFF0500032C01D1012000E00020FFF7D2
:400E400067FF030038042D02284318438003800B0C4A3023D35C08339B009850033C002C91DC642000F064FFB0B206E0002004E0002002E0002000E0002004BC9046F0BDD4
:400E8000C40000200807002070B50500002407E0FFF750FF002807D1013000F08FFB0134AC42F5D3002000E0012070BD10B5FA20FFF7EAFF002806D0044A3023D35C0433FE
:400EC0009B00985800E0002010BDC0460807002070B5FFF7EBFE002852D064220021572000F0C4FE00284BD16421073000F04CFF002845D164220121573001F019F8002875
:400F00003ED1FFF705FF05000020FFF701FF04000020FFF7FDFE030028042402204318438003800B174C3025625D0132D317990F521803231A40531ADBB263559B0018517B
:400F4000114B1B78012B16D90020FFF7E1FE05000020FFF7DDFE04000120FFF7D9FE2B042402234303439B039B0B064930228A5C043292005350FFF7BBFE642000F0D8FE5A
:400F800070BDC04608070020C4000020F0B5474680B482B0019008001900089B984600230360012628E0B3009F5847451FDD164BF3189B009B589F4202DC18E0013500E072
:400FC00001257419A14203DDA3009B589F42F5D0A3009B589F420CDD03680E2B0BDC5C1C04609B00019CE6500135761904E0013602E0260000E026004B1E9E42D3DB02B073
:4010000004BC9046F0BDC046FFFFFF3F70B5012611E0B300C558330002E09C000251013B002B05DD054A9A18920012589542F4DB9B00C55001368E42EBDB70BDFFFFFF3F48
:40104000F0B59446012215E09300CF58130002E09D004C51013B002B09DDBC002658074C1C19A4006458A5002D58AE42F0DC9B00CF5001326245E7DBF0BDC046FFFFFF3F56
:40108000F8B54F464646C0B404000D0010001E000A682100FFF7D4FF01277F4221E07B1C9C462B60180019E08300E3181A68791C03D0B9006158884602E00121494288464F
:4010C0004146521AB24202DC71428A4205DA2A68511C296092001B68A35001304845E3DB67462B6899469F42D9DB19002000FFF78DFF0CBC90469946F8BDC04670B582B0C3
:4011000005000C001600069A00923200FFF73EFF079B320021002800FFF7B2FF2368089A934200DD1300236002B070BDF0B55F4656464D464446F0B4A3B006000D001700B5
:401140000B930023002003E09A00925980180133AB42F9DB290001F021FA0400002305E099008A59A21AA7480A500133AB42F7DB0024AC4616E0A349A500601C83005B5895
:401180006A5890464344A21C920052589B180334A40062589B18DA1703242240D3189B106B5004005F2CE6DD65460020002304E09900944A8A5880180133632BF8DD64211F
:4011C00001F076FA04001D2800DC1E243C2C00DD3C24002304E09900002012AA885001330E2BF8DD0F2302930533019300945033844A21A912A8FFF781FF219B012B0ADCAC
:401200002BE012A88B001B584A1E920012589B1AE418013103E000240121AC461D00A942EFDBA846654641460139200001F040FA0100754801F03CFA03001E3B962B06D832
:401240002D9B186001232E9A1370002214E02D9B186000232E9A1370F7E76C4B2D9A136000232E9A1370F0E793006649F05858506749F85858500132AA42F5DB219B994683
:40128000002304E0990000200DAA88500133042BF8DD002348460CE09A0012A95258642A06DD5A4B0B9A136000232C9A1370A2E001338342F0DB00231E0000270A9307908F
:4012C0006BE05A1C1100059212AA890089589B009B589946CB1A0693032B10DC5CE09A0048481258944201DA1E0014009A0048481258954201DA1F001500013303E04B4685
:40130000FF24240625008B42E9DB414B9A468B0098464B469B00524609939A589346524641468A585946501A4A46BB1A5843069901F0BEF95844BA009346524659468B5810
:401340001A1A08922F488246414608585146099B5B589846C01A4B46F31A5843069901F0A7F9404453465946CB58191A089A5443E4114D43E91100290EDD0A9D042D0BDCCD
:40138000002C09D06420604301F092F9AA000DABD0502B0001330A93059B079A013A93428FDB0A9C21000DA8FFF730FEE30FA44663445B10012B0ADD5A1E0DA99200525841
:4013C0009B005B58D318DA0FD3185B1002E09B000DAA9B58DA1EB42A07D80E4AD35C0B9A136001232C9A137005E0084B0B9A136000232C9A137023B03CBC90469946A24669
:40140000AB46F0BD3C070020B80B000019FCFFFFCC080020E8350000F0B50025002711E0BB00C658F3B2FF22964308E06A008A181478A419527822700135013BDBB2002BA7
:40144000F4D10137032FEBD9F0BDC04610B50A00002101F045FA10BD10B501F015FA03680C2B00D1FEE7FEE710B50300084A1068C318084A9A1A802A02DC054A136005E035
:4014800001F002FA0C2303600120404210BDC046C8000020880A002070B50F4E0F4D13E029686B68AC68002202E001C901C30432A242FAD1E868002202E0002102C304326D
:4014C0008242FAD11035013E002EE9D101F0E2F9FEF7C2FEFEE7C046010000006837000010B500230AE0032B03D89A000949505800E009489900094A885001332F2BF2D928
:40150000FEF7EAFD8022D205116801230B43136010BDC0460000000059140000000000201F2318401E3B8340014A13607047C04600E100E01F2318401E3B8340014A136032
:401540007047C04680E100E001BE704770B504000D001F2802D90020FFF7F6FF1034A40080239B059C4664442068256070BDC04670B504000E00032902D90020FFF7E4FF68
:401580001F2C02D90020FFF7DFFF03252540ED00063500F04FFEA408A400074B9C46644421680323AB4099430B003100A9401943216000F043FE70BD00E400E010B5040090
:4015C00006E0084B586800F02BFE074B9C46644480231B029C42F4D8024B9868604300F01FFE10BDCC0000200080FFFF10B5034B1B7B584300F014FE10BDC046CC0000205A
:40160000F0B557464E46C0B483B0040000F012FE0190E71E2D2F74D83F4B1B78DBB29C4208D83E4B1B78DBB29A463D4B1B78DBB2994631E03B4B1B78DBB29C4208D83A4B79
:401640001B78DBB29A46394B1B78DBB2994623E0374B1B78DBB29C4208D8364B1B78DBB29A46354B1B78DBB2994615E0334B1B78DBB29C4208D8324B1B78DBB29A46314B3A
:401680001B78DBB2994607E02F4B1B78DBB29A462E4B1B78DBB299462D4BDE5D2F2E09D92A2C07D919222B4B1A60052000F0B8FD192503E0274B1D683F231D40B54206D988
:4016C000234BDA5D234B1A60052000F0A9FD1F4B9C4664442378DBB21F4A13601F4B52461A601F4B4A461A600520FFF77FFFB5420AD2174BDA5D174B1A60052000F090FD37
:4017000002E00020FFF720FF019800F097FD03B00CBC91469A46F0BDC0F1FF0FC1F1FF0FC2F1FF0FC3F1FF0FC4F1FF0FC5F1FF0FC6F1FF0FC7F1FF0FC8F1FF0FC9F1FF0FF3
:40174000CAF1FF0FCBF1FF0FCCF1FF0FCDF1FF0FE03600002CFF0B4028FF0B401CFF0B4020FF0B40034B1868C0231B02184000D00120704700010B4010B500F05BFD044AFC
:401780001368C02109020B43136000F057FD10BD00010B4010B500F04DFD08490A68084B1A408024E40122430A600A6813408022120213430B6000F041FD10BD00010B405A
:4017C000FF3FFFFF70B5050000F034FD0400FFF7C9FF002803D0FFF7DDFF012100E0002108482840084A1568084B2B40184310601368012901D1FFF7BFFF200000F01EFD4A
:4018000070BDC0460404040010020B40FBFBFBFF10B5244B1B685B0715D5234B1B685B070ED5224BD969042001401F4C22688A432260DA698243DA611B69002B00D09847EA
:401840000420FFF7BFFF174B1B685B0518D5164B1B685B0510D5154BD9698022D2001140114802688A430260D969114A0A40DA615B69002B00D098478020C000FFF7A2FF25
:40188000084B1B685B030CD5074B1B685B0304D5064B9B69002B00D098478020C002FFF791FF10BD10020B40E0000020B0010020FFFBFFFF10B500F06FF810BD10B500F05F
:4018C0001DF810BD10B5044A1368802109060B431360FFF7EFFF10BD0000074010B5064B1B78002B04D1FFF7E9FF0122024B1A70FFF7E8FF10BDC046D0010020134A144B31
:401900001A600023134A13601349144A1160144A14490A6007201449086014490B6006381349086013490A60134A1360134A1360134A1360134A1360134A1360134A13608E
:40194000134A13601268134B1A8070470B000002000007404000074001000A004800074007000080000307400403074010030740440007400002074004020740880E074082
:40198000C80E0740480F0740080F0740C80F0740880F0740D2010020064A1168064B0B40902109040B431360044B1A88044B1A607047C04600000140FFFF0FFFD201002084
:4019C000880F074070B50500002402E000F03AFC0134285D0028F9D170BDC04610B50A20FFF79EFD10BDC04610B500F01DF810BD10B5044A1368802109060B431360FFF7F5
:401A0000EDFF10BD0000064010B5064B1B78002B04D1FFF7E9FF0122024B1A70FFF7E8FF10BDC046D401002010B51B4A11680C230B4313600024194B1C60194A194B1A60A9
:401A4000194B1A4A13601A4A14601A4A14601A4A13601A4B1C600A20FFF76CFD03210A20FFF786FD16490A20FFF770FD154B1C60154B1C60154B1C60154B1C60154B1C603B
:401A8000154B1C601022154B1A70154B1C80154B1C60154B1C6010BD7000064000000640770800806000064007010080000306400403064010030640000206400402064001
:401AC00061220000C80E0640880E0640480F0640080F0640C80F0640880F06405C0A00206C0A00207C0A0020640A002010B5144A13685B005B081360002312490B60124914
:401B00000B601248046812492140016011490B6011490B601149124B19601249124B19601249134B19601349134B19601021134B19701368802109060B43136010BDC04630
:401B400000000640680006406C00064060000640FF5CFFFF880F0640C80F0640F3070000800F0640ED0F0000C00F0640FF0F0000400F064017030000000F06405C0A00204E
:401B800010B504000368002B09D00120FFF72EFD2368013B2360002B03D0002003E0002001E08020000610BD10B5002839DBC023034208D00022284B1A601032274B1A709E
:401BC000002310243DE0C3070FD5244B1B781B072BD5234B1B685B0001D5002300E0012310211E4A117001242BE0C30520D4830722D4C30605D51022184B1A7000230024C7
:401C00001FE0164B1B781B0719D5144B1B78DB0701D5252200E02422104B1A70002300240FE00123802424060BE00123012408E001238024640004E00023022401E0002304
:401C40000024012B02D1FFF751FF02E0054A064B1A60200010BDC046680006405C0A00206000064017030000000F064070B582B004000D001600244B1B78102B40D10A20CD
:401C8000FFF758FC214B1B68DB0734D4FA239B005E43019600221E4B1A601E4A1E4B1A601E4A1F4B1A606400FF231C40002D03D12422154B1A7004E02522134B1A7001232B
:401CC0001C43184B1C600222174B1A60124B1C680823FF3320001840144B1B68C02423401843040001A8FFF74BFF2043EED0FFF75BFF040000E008240A20FFF711FC00E0F1
:401D00000424200002B070BD5C0A002064000640080F064017030000000F0640ED0F0000C00F06404002064068000640400F064010B582B0104B1B789B061AD5FA239B0077
:401D4000584301900D4B1B689B0601D5182200E010220B4B1A600B4B18681223FF331840040001A8FFF70CFF2043F4D0FFF71CFF00E0042002B010BD5C0A0020640006409B
:401D800068000640000F064010B582B00D4B1B789B0613D5FA239B00594301910A4B18600A4B18680823FF331840040001A8FFF7E7FE2043F4D0FFF7F7FE00E0042002B028
:401DC00010BDC0465C0A002040020640000F0640F0B583B004000D00164B1B789B0626D5FA239B005A430192134B18680223FF3318400700114B1B6804261E4001A8FFF7B2
:401E0000BFFE384333000343EED0002E05D00C4B1B682B700B4A094B1A60FFF7C5FE002806D1002C04D10422074B1A6000E0042003B0F0BD5C0A0020000F0640C00F064099
:401E400040030640ED0F00006800064010B50A20FFF770FB044B1C88A4B200221A800A20FFF75EFB200010BD6C0A002070B52B4B1B6820251D402A4C03E00120FFF7B6FBFD
:401E8000013C00F089F8002801D1002CF5D1002C43D0002000F088F8224A13680F218B431360214A13685B005B081360002D18D0002000F079F80A20FFF798FB012000F0F0
:401EC00073F80A20FFF792FB154C03E00120FFF78DFB013C00F074F8002803D1002CF5D100E00F4C002C08D0002000F05DF80A20FFF77CFB01220D4B1A600B4A13688021BF
:401F000009060B43136007490B680F229343013A13430B60012000F047F870BD64000640204E000010000140000006406800064010B582B0154B1B789B0623D5FA239B00F6
:401F40005A4301924000FF240440002903D124220E4B1A7004E025220C4B1A7001231C43FFF784FF0A4B1C600A4B18680823FF331840040001A8FFF703FE2043F4D0FFF740
:401F800013FE00E0042002B010BDC0465C0A002040020640000F0640024B1868400801231840704704040440044A1368DBB201218B430840184310607047C0460004044032
:401FC000024B1B68012018407047C0460404044010B500F02FF9044A136801218B43136000F02CF910BDC046000005400004000C014B18607047C046080105400004000C6A
:40200000014B18607047C046140105400004000C014B18607047C0460C01054070B504000D0000F007F9AC40024B1C6000F006F970BDC0460800054010B500F0FBF8064AA0
:40204000116801230B43136000F0F8F818210120FFF7E4FF10BDC04600000540014B18607047C0463801054010B50E4C8023DB042360236823600020FFF7B8FF23682360CB
:402080000C22094B1A600120FFF7E8FF3122074B1A60074C2000FFF7B1FF2000FFF7B6FF10BDC046000105402401054028010540FFFF000010B5064B1B78002B04D1FFF795
:4020C000D3FF0122024B1A70FFF7B6FF10BDC046DC0100208423014AD05070470000002010B5040000F0A6F8044A1168044B0B40A4031C43146000F0A1F810BD10E400E054
:40210000FF3FFFFF80229202014B1A607047C04600E100E080229202014B1A607047C04680E100E010B50400FFF7F4FF2000FFF7D1FF0320FFF7D4FFFFF7E4FF10BDC046BF
:402140000004000C014B18607047C046480105400004000C014B18607047C046540105400004000C014B18607047C0464C01054070B504000D0000F05DF8AC40024B1C60C2
:4021800000F05CF870BDC0460800054010B500F051F8064A116802230B43136000F04EF818210220FFF7E4FF10BDC04600000540014B18607047C0467801054010B5002206
:4021C000084B1A600C32084B1A600120FFF7F0FF0648FFF7BDFF0020FFF7C2FF0020FFF7AFFF10BD40010540640105401F4E000010B5064B1B78002B04D1FFF7DFFF01225C
:40220000024B1A70FFF7C2FF10BDC046DD010020014B18607047C04670010540000000000230800804D0C0460138FDD1C046C046C0467047EFF3108072B6704780F3108848
:402240007047C046044B1B680F221340082BF9D0024B18607047C046080207404002074010B5AD4B1B68002B00D09847AB4B1B68DB0702D50022AA4B1A60AA4B1B789B06ED
:4022800028D5A94B1B68DB0507D5A84A1188C0239B000B431380012300E00023A24A1268D20706D5A14A118890239B000B4313800123002B0FD09B4A1278D20701D50122A1
:4022C00000E002229949088802430A800021954A117000E00023934A1278920600D414E1914A1268D20611D51022914B1A608D4B1B78DB0701D5012300E002238B4A1188F8
:402300000B4313801022874B1A7004E1854A1278120720D5844A126892070AD50222844B1A60824A118888239B000B431380012311E07C4A1278D20703D52521794A117089
:4023400009E02421774A11707A4A1268002A02D01439794A1160734A1278520700D4ABE0704A1278D20749D5744A1268120727D5734A1268734909680F240C40724909689C
:402380006418141B082C09D8002C16D16F4A11686F4B0B401360012308340EE008240CE0694A11686B48006841186B480068C0B20870116801311160013C002CF0D119E056
:4023C0005E4A1268520715D55F4A116861480068411861480068C0B208701168013111601168574A1268914203D204215B4A116000E001235A495B4A11605DE04A4A126856
:40240000920726D502224A4B1A6057490B680D321A40096880231B020B4000D001239B18524A1168CB1A13601268514B1A603F4A118884239B000B4313804E4B1A68802108
:4024400049020A431A6019684B4A0A401A60012332E04A4A1268D20612D424E0434A1168344A1268914211D2404A11684448006841180978C9B24348016011680131116062
:40248000394A12680F210A40082AE7D1374A1168284A1268914202D14021274A11603A493A4A116008E0354A1268520604D52F4B1A682F4B1A600123002B2CD0234A116841
:4024C000234B0B4013600023314A13601A4A1360304B1B789B070ED5124B1B78DB0701D5092300E00A23114A11880B43138060220C4B1A700FE0284B1B689B0601D5182286
:4025000000E01022154B1A6005E0064B1B78DB0601D4FFF7EBFA10BDD80100208C0E0640880E06405C0A00200C0F06406C0A0020000F0640680A0020880F0640CC0F064071
:40254000780A0020080306407C0A002060000640FFFEFFFF700A00204003064068000640ED0F0000C00F064008020640600A0020640A002004020640FFFFFEFF8C0F0640AF
:40258000800A002040020640F3070000800F0640C80F0640740A002064000640002243088B4274D303098B425FD3030A8B4244D3030B8B4228D3030C8B420DD3FF2209027A
:4025C00012BA030C8B4202D31212090265D0030B8B4219D300E0090AC30B8B4201D3CB03C01A5241830B8B4201D38B03C01A5241430B8B4201D34B03C01A5241030B8B42E7
:4026000001D30B03C01A5241C30A8B4201D3CB02C01A5241830A8B4201D38B02C01A5241430A8B4201D34B02C01A5241030A8B4201D30B02C01A5241CDD2C3098B4201D39F
:40264000CB01C01A524183098B4201D38B01C01A524143098B4201D34B01C01A524103098B4201D30B01C01A5241C3088B4201D3CB00C01A524183088B4201D38B00C01AFA
:40268000524143088B4201D34B00C01A5241411A00D20146524110467047FFE701B5002000F0F0F802BDC0460029F7D076E7704703460B437FD4002243088B4274D30309FB
:4026C0008B425FD3030A8B4244D3030B8B4228D3030C8B420DD3FF22090212BA030C8B4202D31212090265D0030B8B4219D300E0090AC30B8B4201D3CB03C01A5241830B59
:402700008B4201D38B03C01A5241430B8B4201D34B03C01A5241030B8B4201D30B03C01A5241C30A8B4201D3CB02C01A5241830A8B4201D38B02C01A5241430A8B4201D36B
:402740004B02C01A5241030A8B4201D30B02C01A5241CDD2C3098B4201D3CB01C01A524183098B4201D38B01C01A524143098B4201D34B01C01A524103098B4201D30B01AD
:40278000C01A5241C3088B4201D3CB00C01A524183088B4201D38B00C01A524143088B4201D34B00C01A5241411A00D201465241104670475DE0CA0F00D04942031000D3D5
:4027C0004042534000229C4603098B422DD3030A8B4212D3FC22890112BA030A8B420CD3890192118B4208D3890192118B4204D389013AD0921100E08909C3098B4201D33F
:40280000CB01C01A524183098B4201D38B01C01A524143098B4201D34B01C01A524103098B4201D30B01C01A5241C3088B4201D3CB00C01A524183088B4201D38B00C01A38
:402840005241D9D243088B4201D34B00C01A5241411A00D20146634652415B10104601D34042002B00D54942704763465B1000D3404201B5002000F005F802BD0029F8D091
:4028800016E770477047C046014B18687047C046440100200E4B70B500251E000D4CE41AA410A54204D0AB00F35898470135F8E700F048FF084B00251E00084CE41AA41075
:4028C000A54204D0AB00F35898470135F8E770BD5037000050370000503700005837000003008218934202D019700133FAE770470CB430B5164B9DB00C1E1D6804DA8B23BB
:4029000001202B6040421DE0822302A99B008B810023029008619C4200D0631E8B604B6101235B42CB81209A21AB2800019300F073F8431C01DA8B232B60002C02D0002353
:40294000029A13701DB030BC08BC02B01847C04644010020F0B58E6885B007000C00039201939E4243D890238A89DB001A423ED003250969236801985B1A029363695D43F9
:40298000EB0F5D19029B6D1001331B18AB4200D91D00530510D52900380000F041FB061E14D0029A216900F0D0FAA289194B134080221343A38112E02A00380000F090FBC4
:4029C000061E0CD12169380000F0DEFA0C23402201203B60A38940421343A38117E0029B2661F61826606561019EED1AA560019BB34200D21E0032000399206800F0AEFA48
:402A00000020A3689B1BA36023689E19266005B0F0BDC0467FFBFFFFF0B59FB0029005938B890F0016001B0610D50B69002B0DD1402100F0F5FA38603861002804D10C2393
:402A4000029A01381360D8E040237B61002306AD6B6120336B761033AB7634002378002B03D1A31B049312D003E0252BF9D00134F4E7A31B320039000298FFF76BFF431C4A
:402A800000D1B4E06A69049B944663446B612378002B00D1ABE00122002352426A6002A95432521801342B60EB60AB601370AB65534E21780522300000F03CFA002807D032
:402AC0000123801B83402A68013413432B60EFE72B68DA0604D55322202102A8121811701A0704D553222B2102A81218117022782A2A03D0099B00200A210EE0059A111D04
:402B000012680591002A01DB099204E05242EA60022213432B6001340BE02278303A092A04D84B4301349B180120F6E7002800D0099323782E2B1ED163782A2B0AD1059B54
:402B400002341A1D1B680592002B01DA01235B42079310E000230A201A0001346B6021783039092904D84243013452180123F6E7002B00D00792234E21780322300000F0FE
:402B8000D9F9002806D04023801B83402A68013413432B60217806221B48661C297600F0C9F9002812D0194B002B06D10722059B073393430833059314E005AB00933A0058
:402BC000134B2900029800E000BF07E005AB00933A000F4B2900029800F08AF80390039B013304D06B69039A9B186B6135E7BB890B985B0601D5012040421FB0F0BDC0469A
:402C000010370000163700001A3700000000000055290000F7B5170001938A680B6900900C00934200DA130022003B6043321278002A01D001333B6023689B0602D53B68EA
:402C400002333B60062523681D401ED0230043331B785A1E9341226892061CD53020E1184331087021005A1C45310978A2184332023311700FE0220001231932019900989E
:402C8000089EB047431C0ED00135E3683A689B1A9D42F0DBDAE72200019943320098089DA847431C02D10120404220E006232068E1683A6803400025042B03D18D1AEB43E9
:402CC000DB171D40A3682269934201DD9B1AED180027BD420AD0220001231A3201990098089EB047431CDED00137F2E70020FEBDF0B58BB006920A0043320793059004926C
:402D00000A7E0C00109B6E2A00D1ABE011D8632A22D009D8002A00D1B5E0582A00D0C5E045310A70814A4FE0642A1DD0692A1BD0BCE0732A00D1AAE009D86F2A29D0702A0C
:402D400000D0B3E0202209680A43226037E0752A1FD0782A33D0A9E00E001A684236111D196013683370A4E021681A68080606D4490604D5111D19600023D55E02E0111D22
:402D800019601568002D3BDA2D23049A6D42137036E021681A68080606D4490604D51568111D1960ADB202E0111D196015685F4B227E039308276F2A1DD00A271BE022001E
:402DC0007821453211705A4A19680392081D226818600D68100602D4500600D5ADB2D30702D520231A4322601027002D03D1202322689A4322602300002243331A7002E018
:402E00000A274A4B03936368A360002B09DB0422216891432160002D05D1049E002B11D07BE0002D79D0049E28003900FFF73CFC039B013E5B5C280033703900FFF7AEFB6B
:402E4000051EF1D1082F09D12368DB0706D563682269934202DC3023013E3370049B9B1B23612BE009681A68080607D4490605D5111D19601368A28A1A8004E0111D19607A
:402E8000136862691A600023049E236116E01A68111D1960166800216268300000F04AF8002801D0801B6060636803E0260042363270012323610023049A1370079B09AA9C
:402EC00000932100069B0598FFF7A4FE431C02D10120404227E02369320006990598079DA847431CF4D0236800259B070FD4099BE068984217DA180015E022000123193232
:402F000006990598079EB047431CE1D00135E368099A9B1A9D42F0DBE9E72600039B42361B7833708EE70BB0F0BDC0462137000032370000C9B28218904204D003788B423D
:402F400002D00130F8E700207047002310B59A4203D0CC5CC4540133F9E710BD10B5884202D98B18984201D3002305E09B1A013A08D3995C8154FAE7934203D0CC5CC454BF
:402F80000133F9E710BD000070B50500002944D00C1F2368002B00DAE418280000F0D8F81E4A13681100002B02D16360146031E0A3420DD92268A018834203D118685B6807
:402FC0008218226063600C6024E0A24203D813005A68002AF9D11E689819A0420BD12168711858181960824214D110685268411819605A600EE0A04202D90C232B6009E055
:4030000021686018824203D1106852684118216062605C60280000F09CF870BDE4010020032370B5CD1C9D43083506000C2D01D20C2501E0002D01DBA94202D90C23336089
:4030400048E0300000F084F8234B1C681A002100002913D00B685B1B0DD40B2B02D90B60CC181EE08C4202D1636813601AE04B6863600C0016E00C004968E9E7174C23685F
:40308000002B03D1300000F051F820602900300000F04CF8431C18D00323C41C9C43A0420DD12560300000F054F8200007220B30231D9043C31A0ED05A42E2500BE0211A78
:4030C000300000F033F8431CEBD10C233000336000F03FF8002070BDE4010020E0010020F8B506000C001500002904D11100FFF797FF040018E0002A03D1FFF745FF2C002F
:4031000012E000F027F885420ED929003000FFF787FF071E07D021002A00FFF716FF21003000FFF731FF3C002000F8BD002370B5064C050008002360FEF796F9431C03D150
:403140002368002B00D02B6070BDC046840A0020704770470B1F1A68101F002A04DA891804390B68D018043870470000000000000A0D5374617274696E67204D4158333014
:40318000313032202B204F4C45442050726F6772616D2E2E2E0A0D004F4C454420696E6974206661696C6564210A0D004552524F523A204D41583330313032206E6F74204E
:4031C0006465746563746564210D0A004D41583330313032204552524F5200005265616479210000506C6163652066696E676572000000003D3D3D2043616C632023256C1B
:4032000075203D3D3D0D0A48523A20256C64202876616C69643A2564292C2053704F323A20256C64202876616C69643A2564290D0A0000004865617274204D6F6E69746F3A
:4032400072000000506C6561736520706C6163652066696E676572006F6E2073656E736F7200000048523A20256C642062706D0048523A202D2D000053704F323A20256C66
:403280006425250053704F323A202D2D000000005369676E616C3A20544F4F2048494748210000005369676E616C3A20476F6F64000000005369676E616C3A204F4B0000CA
:4032C0005369676E616C3A205765616B00000000BA07000016080000FE070000060800000A080000EA0700000E08000002080000EE070000F2070000E6070000DE070000B9
:40330000C2070000D2070000BE070000DA0700006E0800006E0800006E0800006E0800006E0800006E0800006E0800006E0800006E0800006E080000C6070000CA0700000B
:403340006E080000E20700006E080000CE070000120800006E0800006E0800006E0800006E0800006E0800006E0800006E0800006E0800006E0800006E0800006E08000077
:403380006E0800006E0800006E0800006E0800006E0800006E0800006E0800006E0800006E0800006E0800006E0800006E0800006E0800006E0800006E080000F607000026
:4033C0006E080000FA0700006E080000D6070000AED580A81FD300408D142000A1C8DA02818FD9F1DB40A4A62EAF00000080C0E0F0F8FCFE000103070F1F3F7F3E514945EE
:403400003E00427F400042615149462141454B311814127F1027454545393C4A49493001710905033649494936064949291E7E1111117E7F494949363E414141227F4141D7
:40344000221C7F494949417F090909013E4149497A7F0808087F00417F41002040413F017F081422417F404040407F020C027F7F0408107F3E4141413E7F090909063E4152
:4034800051215E7F09192946464949493101017F01013F4040403F1F2040201F7F2018207F63140814630304780403615149454320545454787F484444383844444420388F
:4034C0004444487F3854545418087E0901020C5252523E7F0804047800447D40002040443D007F1028440000417F40007C041804787C0804047838444444387C1414140867
:40350000081414187C7C080404084854545420043F4440203C4040207C1C2040201C3C4030403C44281028440C5050503C4464544C44000000000000005F000000606000E5
:4035400000008060000000363600000080363600020151090608080808088080808080601008040308083E0808141414141414083E08146264081323001C2241000041226B
:403580001C00007F4141000041417F0003000300000003000000147F147F14242A7F2A1236495522503E415D551E00002200FF21007F00005374617274696E6720696E699F
:4035C000740A0D00436C656172656420446973706C61790A0D00000053656E7420436F6D6D616E64730A0D005F5F5F6060606161616161626262626263636363636363635C
:403600006464646464646464646464646464646464646464636363636363636362626262626261616161606060605F5F5F5E5E5E5D5D5D5C5C5C5B5B5A5A59595958585774
:4036400057565655555454535252515150504F4E4E4D4C4C4B4A4A494848474645454443424241403F3E3E3D3C3B3A39383837363534333231302F2E2D2C2B2A29282726FA
:4036800025242322211F1E1D1C1B1A19171615141311100F0E0C0B0A090706050302010000300F40000400400F400004E280E6105304D42062048B048E049708D840190896
:4036C000230189088F01C608C808E201E608000002330F4002400F4005410F4008430F40030405060708090A0B0C0E0F101112131415161718191B1C1D1E1F202122232561
:40370000262728292A2B2E2F3031323334354300232D302B2000686C4C0065666745464700303132333435363738394142434445460030313233343536373839616263649F
:4037400065660000F8B5C046F8BC08BC9E4670470D020000E1140000F8B5C046F8BC08BC9E467047E501000078370000C000002088000000400900000000000002000000A6
:40378000880A0020010000000000E02EC05D00001800000000366E010404040000000000000000000000000000000000000000000000000000000000000000000E3700001D
:4037C000000000000000000000000000000000000000000000000000000000000000000000000000000000000000000000000000000000000000000000000000E4000020C5
:403800000000000000000000000000000000000000000000000000000000000000000000000000000000000000000000000000000000000000000000000000000000000088
:403840000000000000000000000000000000000000000000000000000000000000000000000000000000000000000000000000000000000000000000000000000000000048
:403880000000000000000000000000000000000000000000000000000000000000000000000000000000000000000000000000000000000000000000000000000000000008
:4038C00000000000000000000000000000000000000000000000000000000000000000000000000000000000000000000000000000000000000000000000000000000000C8
:0200000490303A
:02000000050CED
:0200000490402A
:200000000000000000000000000000000000000000000000000000000000000000000000E0
:0200000490501A
:0C000000000204C81193110104DA169FDD
:0200000490600A
:0100000001FE
:00000001FF